:100000000C9462000C948A000C948A000C948A0070
:100010000C948A000C948A000C948A000C948A0038
:100020000C948A000C948A000C948A000C948A0028
:100030000C948A000C948A000C948A000C948A0018
:100040000C945C150C948A000C948A000C948A0021
:100050000C948A000C948A000C948A000C948A00F8
:100060000C94A6150C948A000000000024002700C0
:100070002A0000000000250028002B0000000000DE
:1000800023002600290004040404040404040202DA
:100090000202020203030303030301020408102007
:1000A0004080010204081020010204081020000012
:1000B0000008000201000003040700000000000027
:1000C0000000C51611241FBECFEFD8E0DEBFCDBFA4
:1000D00011E0A0E0B1E0E8E9F3E402C005900D9280
:1000E000A032B107D9F722E0A0E2B1E001C01D9231
:1000F000A63AB207E1F710E0C2E6D0E004C02197CB
:10010000FE010E949020C136D107C9F70E94FA165D
:100110000C94CA210C9400008091990190919A014D
:10012000891B990B08952F923F924F925F926F9285
:100130007F928F929F92AF92BF92CF92DF92EF9277
:10014000FF920F931F93CF93DF93CDB7DEB7AA979C
:100150000FB6F894DEBF0FBECDBF0D871D8B298F64
:100160003A8F4B8F5C8F6F8F7BA3FE8EED8EE0916D
:100170008402F0918502892B21F0E0918602F091B2
:100180008702FF27EE0FFF1FEE0FFF1FE857FD4FFF
:10019000608171818281938124E630E040E050E00B
:1001A0000E94371F522E632E742E852E962E7A8B28
:1001B000898B492E86017501110FEE08FE2C8701EF
:1001C0009501A6016E2D7E2D8E2D9E2D0FE10E9494
:1001D0003920A12CEAECBE2EFAE9CF2EABE3DA2EC1
:1001E000E12CF12C00E010E00E94641FA52CB62C3D
:1001F000C72CD82CE92CFA880989142D0E94DF1EFF
:100200000FE10E94542029833A834B835C836D83E2
:100210007E838F83988729813A814B815C81550F3A
:10022000220B322FA90129873A874B875C87252D1E
:10023000362D472D582D692D7F2D8989942DA98024
:10024000BA80CB80DC80E984FE2C0E2D1E2D0E940E
:100250006F2029833987498B5A8B6B8B7C8B1C01D0
:100260006D847D88898C9A8C3C8D3D8B4F8C5BA0F6
:100270009301A4016B8D7D89C201211534404B4649
:10028000544F644171058105910569F060F0612C5E
:1002900024E0722E3BE6832E44EF942EB4E1BB8F14
:1002A0001D8A412C512CEB8DEF8F9301A4016E2FF1
:1002B0007D89C201211538454744584F6D4071056D
:1002C0008105910560F4612C08E5702E87E4882E85
:1002D00098EF992E2DE02F8F1D8A412C512CA9804B
:1002E000B984C988DA88EB88FC8881019301A4016C
:1002F0006F8D7D89C2010E94951F298F3A8F4B8F88
:100300005C8F2D873E874F87588B8D859E85AF8567
:10031000B8891FE0A12E0F97A105B10558F02D85D2
:100320003E854F8558892B35310541055105B8F07B
:10033000BAE5AB2EB12CC12CD12CE12CF12C00E074
:1003400010E02981398549895A896B897C89C101E5
:100350000E94DF1E39014A016F8F7D8B2C01A9801D
:10036000B984C988DA88EB88FC8881019301A401EB
:100370006F8D7D89C2010E94931FE0E4AE2EF2E4EE
:10038000BF2EAFE0CA2ED12CE12CF12C00E010E002
:100390000E94DF1EA980B984C988DA88EB88FC88AE
:1003A00081010E94951F49014CA35BA3C901DA0199
:1003B00021E030E040E050E00097A105B10521F0D8
:1003C00020E432E44FE050E02D8B3E8B4F8B588F72
:1003D000BC01CD0127E0660F771F881F991F2A9562
:1003E000D1F72D893E894F89588D0E94931E29018E
:1003F0003A016F8F78A389A39AA3A980B984C98889
:10040000DA88EB88FC88810194014CA15BA160E053
:1004100070E080E090E00E94DF1E2BA33CA34DA380
:100420005EA36FA378A789A79AA78D859E85AF85C0
:10043000B88937E0880F991FAA1FBB1F3A95D1F7DB
:100440009250A109B109840D951DA61DB71DED8D12
:10045000FE8D80839183A283B3832F8D38A149A120
:100460005AA124833583468357832D893E894F893A
:10047000588D2087318742875387298D3A8D4B8D40
:100480005C8D60E070E080E090E00E94DF1E29015A
:100490003A014B01898799838D899E89AF89B88DEF
:1004A0005C016D01E12CF12C00E010E02BA13CA1DE
:1004B0004DA15EA16FA178A589A59AA50E94951F5F
:1004C00059016A017B018C019201A301B401898564
:1004D00099810E946F20AA960FB6F894DEBF0FBED6
:1004E000CDBFDF91CF911F910F91FF90EF90DF90E3
:1004F000CF90BF90AF909F908F907F906F905F90C4
:100500004F903F902F9008952F923F924F925F927D
:100510006F927F928F929F92AF92BF92CF92DF9213
:10052000EF92FF920F931F93CF93DF93CDB7DEB778
:1005300065970FB6F894DEBF0FBECDBF2D833E8307
:100540004F83588769877A878B879C87A982BF8664
:10055000C88AD98AEA8AFB8A0C8B1D8B9E868D8677
:10056000211506ED300701E140070EE7500703E0D3
:10057000600771058105910511F008F009C12F3759
:10058000304F4A4F5240610571058105910509F0D0
:1005900008F469C19501A601B7018C899D89A0E085
:1005A0000E94842009F00DC1AD80BE80CF80D88428
:1005B000E984FA840B851C8520E033E245E75EEE92
:1005C00064E170E080E090E00E94951FC901DA01CB
:1005D000A901BD0120FF99C04F5F5F4F6F4F7F4F53
:1005E00049835A836B837C834F3F510561057105B5
:1005F00040F08EEF90E0A0E0B0E089839A83AB8377
:10060000BC83E980FA800B811C81A8019701AD8031
:10061000BE80CF80D884E984FA840B851C8560E095
:1006200070E080E090E00E94DF1E29013A014B015A
:100630001C01211504E030070BE6400704EF5007CA
:1006400004E1600771058105910509F008F47DC09A
:1006500089819A81AB81BC810297A109B109898303
:100660009A83AB83BC831C012D010B859101A201F0
:1006700060E070E080E090E00E94DF1E29013A0116
:100680004B011C0189819A81AB81BC819927AA27E2
:10069000BB27ED85FE8580839183A283B38314827B
:1006A0001582168217821086118612861386920191
:1006B000A301B401C10165960FB6F894DEBF0FBE69
:1006C000CDBFDF91CF911F910F91FF90EF90DF9001
:1006D000CF90BF90AF909F908F907F906F905F90E2
:1006E0004F903F902F90089545E050E060E070E01B
:1006F0001D8286ED8E8391E19F83AEE7A887B3E0EC
:10070000B9871A861B861C8667CF0597A105B10598
:1007100009F066CF16E0E12EF12C00E010E0E9824E
:10072000FA820B831C836DCF46E057E060E070E0F7
:10073000E0E8ED83F0EFFE830AEF0F8312E0188705
:1007400019861A861B861C864BCF2F3F3745474498
:10075000584F6D4071058105910511F008F092CF59
:1007600089819A81AB81BC810296A11DB11D8983CB
:100770009A83AB83BC831C012D01AD80BE80CF80EA
:10078000D884E984FA840B851C8570CF412C63C022
:1007900029813F85488959896A897B898C899D8906
:1007A000A0E00E94842009F49FCF1D82B6EDBE8395
:1007B000E1E1EF83FEE7F88703E009871A861B86ED
:1007C0001C86AD80BE80CF80D884E984FA840B85F6
:1007D0001C8529813F85488959896A897B898C894B
:1007E0009D890E94931F29013A014B011C01A0E041
:1007F0000E94842059F629813F85488959896A8950
:100800007B898C899D890E94951F022F132F242F8D
:10081000352FD901C8010697A109B109893F910572
:10082000A105B10508F043CF10E030E020E0AD8530
:10083000BE850D931D932D933C931397FD01148258
:1008400015821682178218961D921D921D921C9277
:100850001B9744244394512C612C712C812C912C96
:10086000212C312C24CF29813F85488959896A89D7
:100870007B898C899D89A0E00E94842009F454CF53
:1008800010E81D8380EF8E839AEF9F83A2E0A887F4
:10089000198694CFDF92EF92FF920F931F93CF931D
:1008A000DF93FC01E080F18002811381D481C58156
:1008B000B681D7809701A8016D2F7C2F8B2F9D2D9E
:1008C000285938424C41510961097109810991093E
:1008D000273938424C415105610571058105910563
:1008E00009F0D0F49701A8016D2F7C2F8B2F9D2D3F
:1008F00007E00E943920208331834283538364833D
:1009000075838683978387E0DF91CF911F910F9145
:10091000FF90EF90DF9008959701A8016D2F7C2F35
:100920008B2F9D2D20533145484351096109710991
:10093000810991092F3231454843510561057105FF
:100940008105910509F098F49701A8016D2F7C2F7E
:100950008B2F9D2D06E00E94392020833183428316
:100960005383648375838683978386E0CDCF970115
:10097000A8016D2F7C2F8B2F9D2D2056324A40478A
:10098000510961097109810991092F35324A40479E
:100990005105610571058105910509F098F49701EC
:1009A000A8016D2F7C2F8B2F9D2D05E00E943920F3
:1009B0002083318342835383648375838683978343
:1009C00085E0A2CF9701A8016D2F7C2F8B2F9D2D45
:1009D000205C3444414E5109610971098109910932
:1009E0002F3B3444414E5105610571058105910548
:1009F00009F098F49701A8016D2F7C2F8B2F9D2D66
:100A000004E00E943920208331834283538364832E
:100A100075838683978384E077CF9701A8016D2F34
:100A20007C2F8B2F9D2D20583948424C5140610915
:100A30007109810991092F373948424C51406105AC
:100A400071058105910509F098F49701A8016D2FB2
:100A50007C2F8B2F9D2D03E00E9439202083318332
:100A600042835383648375838683978383E04CCF6B
:100A70009701A8016D2F7C2F8B2F9D2D3351454859
:100A8000534061097109810991092F3F324145485D
:100A90005340610571058105910509F098F49701AE
:100AA000A8016D2F7C2F8B2F9D2D02E00E943920F5
:100AB0002083318342835383648375838683978342
:100AC00082E022CF9701A8016D2F7C2F8B2F9D2DC7
:100AD00036524A40574061097109810991092F3FF7
:100AE00035424A405740610571058105910509F07D
:100AF00098F49701A8016D2F7C2F8B2F9D2D01E07D
:100B00000E94392020833183428353836483758319
:100B10008683978381E0F8CE80E0F6CE2F923F92D5
:100B20004F925F926F927F928F929F92AF92BF92FD
:100B3000CF92DF92EF92FF920F931F93CF93DF93A9
:100B4000CDB7DEB76C970FB6F894DEBF0FBECDBF42
:100B5000322E3D87242E5E872B013C01A982BF8661
:100B6000C88AD98AEA8AFB8A0C8B1D8B988E8F8A59
:100B7000211501EC30070AE140070DE3500705E0BD
:100B8000600771058105910509F0A0F52F3710EF79
:100B900031071AEF410712E0510761057105810520
:100BA000910509F008F4B4C12F3F354D41415E472E
:100BB000634071058105910509F008F48FC0298112
:100BC0003F85488959896A897B898C899D89A0E0FC
:100BD000992493940E94842009F08EC011E01E8B0A
:100BE00094E0892E912CA12CB12C89869A86AB8613
:100BF000BC862FC0312CB1ECBD872AE1222EEDE35B
:100C0000EE8735E0432E512C612C712CD8CFA32CCC
:100C1000BD84C22CDE847201830120E034E04BE607
:100C200054EF64E170E080E090E00E94951F122F85
:100C3000B32FF42FE52FA7E00E94842021F416E0C3
:100C4000B0E0F0E0E0E0CF011987BA879B87EC873E
:100C50001E8A89849A84AB84BC84A501940160E0D7
:100C600070E0CB01A32CBD84C22CDE847201830111
:100C700029833A834B835C836D837E838F8398873C
:100C800060E070E080E090E00E94DF1E29833F87F3
:100C9000488B598B6A8B7B8B8C8B9D8B0E89C12CDF
:100CA000D12C7601C39440E050E0BA01013009F044
:100CB000A9C0AF89B88D1D921D921D921C921397E9
:100CC000FD01148215821682178281E090E0A0E077
:100CD000B0E080879187A287B387DEC029813F85F6
:100CE000488959896A897B898C899D89A0E00E94FD
:100CF000842009F48CCF912CA32CBD84C22CDE84DB
:100D00007201830129813F85488959896A897B89D4
:100D10008C899D890E94951F29873A874B875C871C
:100D200029853A854B855C8506E0A02EB12C2630BE
:100D300031054105510568F089859A85AB85BC85EB
:100D400089309740A105B105D0F0B8E0AB2E17E08F
:100D5000B12EC12CD12CE12CF12C00E010E0298126
:100D60003F85488959896A897B898C899D890E9438
:100D7000951F322E3D87242E5E872B013C01A32C2C
:100D8000BD84C22CDE847201830129813F8548899C
:100D900059896A897B898C899D890E94931FE0E427
:100DA000AE2EF2E4BF2EAFE0CA2ED12CE12CF12CF6
:100DB00000E010E00E94DF1EA32CBD84C22CDE8464
:100DC000720183010E94951FA32FF42FE52F422F5C
:100DD0005A2F6F2F7E2FA0E4CA2EA2E4DA2EAFE0A6
:100DE000EA2EF12C411551056105710521F4C12C44
:100DF000D12C7601C394AA24A3949A1409F46DC04B
:100E000001E00E8BCB01BA0117E0660F771F881F38
:100E1000991F1A95D1F7A70196010E94931E298F59
:100E20003A8F4B8F5C8F89849A84AB84BC8407E0B3
:100E3000880C991CAA1CBB1C0A95D1F7950184014A
:100E400012502109310948015901298D3A8D4B8DE4
:100E50005C8D280D391D4A1D5B1DAF89B88D2D9302
:100E60003D934D935C931397FD0164837583868353
:100E700097831896CD92DD92ED92FC921B978E8807
:100E8000882051F039829D849F86288AAE84A98A61
:100E90004A8A5B8A6C8A7D8A29813F85488959897B
:100EA0006A897B898C899D896C960FB6F894DEBF20
:100EB0000FBECDBFDF91CF911F910F91FF90EF90AB
:100EC000DF90CF90BF90AF909F908F907F906F906A
:100ED0005F904F903F902F900895AF89B88D1D92ED
:100EE0001D921D921C921397FD0114821582168289
:100EF000178281E090E0A0E0B0E080879187A28730
:100F0000B3873982FD85FF87288A8E84898AC0CF7E
:100F100029813F85488959896A897B898C899D897E
:100F2000A0E0E0E83E2EF0EFFD87FAEF2F2E02E082
:100F30000E87412C512C612C712C0E94842009F0C9
:100F4000DACE18E0B7E07DCEDF92EF92FF920F93FA
:100F50001F93CF93DF93FC01E080F1800281138126
:100F6000D481C581B681D7809701A8016D2F7C2FD0
:100F70008B2F9D2D20583A41464051096109710936
:100F8000810991092F373A414640510561057105A4
:100F90008105910509F0D0F49701A8016D2F7C2FF0
:100FA0008B2F9D2D07E00E943920208331834283BF
:100FB0005383648375838683978387E0DF91CF9122
:100FC0001F910F91FF90EF90DF9008959701A80176
:100FD0006D2F7C2F8B2F9D2D35534C40510961096E
:100FE0007109810991092F3F34434C405105610536
:100FF00071058105910509F098F49701A8016D2FFD
:101000007C2F8B2F9D2D06E00E9439202083318379
:1010100042835383648375838683978386E0CECF30
:101020009701A8016D2F7C2F8B2F9D2D3A5648419B
:10103000510961097109810991092F3F39464841D8
:101040005105610571058105910509F098F4970135
:10105000A8016D2F7C2F8B2F9D2D05E00E9439203C
:10106000208331834283538364837583868397838C
:1010700085E0A4CF9701A8016D2F7C2F8B2F9D2D8C
:10108000345D4043510961097109810991092F3F7C
:10109000334D40435105610571058105910509F006
:1010A00098F49701A8016D2F7C2F8B2F9D2D04E0C4
:1010B0000E94392020833183428353836483758364
:1010C0008683978384E07ACF9701A8016D2F7C2FC8
:1010D0008B2F9D2D385A41465109610971098109AB
:1010E00091092F3F374A4146510561057105810538
:1010F000910509F098F49701A8016D2F7C2F8B2F93
:101100009D2D03E00E943920208331834283538345
:10111000648375838683978383E050CF9701A8010A
:101120006D2F7C2F8B2F9D2D3055434C510961091C
:101130007109810991092F3F3F44434C51056105D5
:1011400071058105910509F098F49701A8016D2FAB
:101150007C2F8B2F9D2D02E00E943920208331832C
:1011600042835383648375838683978382E026CF8B
:101170009701A8016D2F7C2F8B2F9D2D305A46484B
:10118000514061097109810991092F3F3F49464842
:101190005140610571058105910509F098F49701A9
:1011A000A8016D2F7C2F8B2F9D2D01E00E943920EF
:1011B000208331834283538364837583868397833B
:1011C00081E0FCCE80E0FACE08950895833081F06E
:1011D00028F4813099F08230A9F008958730A9F081
:1011E0008830C9F08430B1F4809180008F7D03C0D5
:1011F000809180008F7780938000089584B58F77E9
:1012000084BD089584B58F7DFBCF8091B0008F772A
:101210008093B00008958091B0008F7DF9CFCF9377
:10122000DF93282F30E0F901E255FF4F8491F90157
:10123000E656FF4FD491F901EA57FF4FC491CC23F2
:10124000A1F081110E94E608EC2FF0E0EE0FFF1FE5
:10125000E458FF4FA591B491EC91ED2381E090E02B
:1012600009F480E0DF91CF91089580E090E0FACF1B
:101270001F93CF93DF93282F30E0F901E255FF4F02
:101280008491F901E656FF4FD491F901EA57FF4FD7
:10129000C491CC23A9F0162F81110E94E608EC2FEF
:1012A000F0E0EE0FFF1FEE58FF4FA591B4918FB7FE
:1012B000F894EC91111108C0D095DE23DC938FBF18
:1012C000DF91CF911F910895DE2BF8CFCF93DF935D
:1012D00090E0FC01E656FF4F24918A579F4FFC0196
:1012E00084918823D1F090E0880F991FFC01E85980
:1012F000FF4FA591B491FC01EE58FF4FC591D491D9
:1013000061110EC09FB7F8948C91E22FE0958E2367
:101310008C932881E223E8839FBFDF91CF910895CA
:101320008FB7F894EC91E22BEC938FBFF6CF3FB7D9
:10133000F89480917B0190917C01A0917D01B09106
:101340007E0126B5A89B05C02F3F19F00196A11D6F
:10135000B11D3FBFBA2FA92F982F8827BC01CD01FF
:10136000620F711D811D911D42E0660F771F881F5E
:10137000991F4A95D1F708958F929F92AF92BF928D
:10138000CF92DF92EF92FF926B017C010E9497094E
:101390004B015C01C114D104E104F104B9F00E94D5
:1013A0009709681979098A099B09683E7340810584
:1013B000910580F321E0C21AD108E108F10888EE16
:1013C000880E83E0981EA11CB11CE4CFFF90EF9023
:1013D000DF90CF90BF90AF909F908F900895209115
:1013E0005301260F3327331F21323105ECF42091AE
:1013F000E101FC0190E080E0243069F082E0089592
:10140000A09153012191AC014D5C5E4FA40FB52F0B
:10141000B11D2C930196861798F380915301680FA4
:101420006093530180E0089581E008951092E101F6
:1014300081E08093E0011092BB0161E082E10E94B3
:10144000380961E083E10E943809E9EBF0E080812E
:101450008E7F808380818D7F808388E48093B80035
:1014600085E48093BC000895CF93DF9391E090933F
:1014700032018823B9F0C091B800D091BA008091B0
:10148000BC008A7B8093BC0060E082E10E94380946
:1014900060E083E10E9438090E94160AD093BA00E6
:1014A000C093B800DF91CF9108958F929F92AF9231
:1014B000BF92CF92DF92EF92FF920F931F93CF9341
:1014C000DF93D0910A02D13208F0D7C0182FC09113
:1014D00009020E9497096B017C018091E101811151
:1014E0006BC082E08093E1011093E0018FEF809365
:1014F000DF011092DE01D093DD01A9EEB1E0EDEB4A
:10150000F1E080E0D81391C01092BC018091BC0141
:10151000CC0FC82BC093BC018091BB01813009F076
:1015200088C01092BB010E9497096B017C018091D9
:10153000BC018093BB008091E3019091E401A091F4
:10154000E501B091E601892B8A2B8B2BA1F00E943B
:1015500097090091E3011091E4012091E501309198
:10156000E6016C197D098E099F09061717072807E0
:10157000390708F442C08091BC0083FDD8CF85ECC8
:101580008093BC000E9497096B017C018091E1016E
:10159000823009F450C08091DF018F3F09F46FC0A1
:1015A0008091DF01803209F46CC08091DF018033CB
:1015B00009F469C084E026C08091E3019091E401C0
:1015C000A091E501B091E601892B8A2B8B2B09F4C0
:1015D00084CF0E9497098090E3019090E401A0904D
:1015E000E501B090E6016C197D098E099F09861608
:1015F0009706A806B90608F070CF8091E2010E9414
:10160000340A85E01092E80110920A021092E70174
:10161000DF91CF911F910F91FF90EF90DF90CF90CE
:10162000BF90AF909F908F9008959D9191938F5F01
:1016300069CF85EEA5CF8091E3019091E401A0915F
:10164000E501B091E601892B8A2B8B2B09F49ECF03
:101650000E9497090091E3011091E4012091E501B6
:101660003091E6016C197D098E099F09061717074D
:101670002807390708F08ACFC0CF81E0C3CF80E0C8
:10168000C1CF82E0BFCF83E0BDCF0895E0919A0142
:1016900080919901E81730F4F0E0E556FE4F808123
:1016A00090E008958FEF9FEF089590919A018091B7
:1016B00099012FEF3FEF981748F4E92FF0E0E55636
:1016C000FE4F208130E09F5F90939A01C9010895F9
:1016D000CF92DF92EF92FF920F931F93CF93DF93FE
:1016E0007C01CB018A012091E701222389F0EB01E3
:1016F0006B01C40ED51ECC15DD0569F06991D701CB
:10170000ED91FC910190F081E02DC7010995F3CF97
:10171000642F0E94EF09C801DF91CF911F910F91B3
:10172000FF90EF90DF90CF900895CF93DF931F92BB
:10173000CDB7DEB769832091E7012223F9F020912C
:101740000A02203258F021E030E0FC01338322838A
:1017500090E080E00F90DF91CF9108958091E801B3
:10176000E82FF0E0E751FE4F998190838F5F8093DF
:10177000E80180930A0281E090E0ECCF61E0CE01C5
:1017800001960E94EF09F7CFCF93C62F909199024F
:1017900021E02093E701909309021092E801109252
:1017A0000A02682F8FE092E00E94950B6C2F8FE069
:1017B00092E00E94950B81E0CF910C94550AEF9234
:1017C000FF920F931F93CF93DF93062F7A0190918F
:1017D000990221E02093E701909309021092E80119
:1017E00010920A02682F8FE092E00E94950BE701A9
:1017F00010E0CE018E199F098017910734F469918A
:101800008FE092E00E94950BF4CF81E0DF91CF91C1
:101810001F910F91FF90EF900C94550A90E080E09B
:10182000089580913001909131018035910509F042
:101830005DC048E055E866E370E040932C015093AA
:101840002D0160932E0170932F0148ED5CE866E353
:1018500070E0409328015093290160932A0170930E
:101860002B0140E958E966E370E04093240150936E
:101870002501609326017093270148ED53E766E345
:1018800070E04093200150932101609322017093F6
:1018900023018F30910509F089C080E590E9A1E42A
:1018A000B1E080932C0190932D01A0932E01B09371
:1018B0002F0180E292E9A2E4B1E0809328019093A5
:1018C0002901A0932A01B0932B0180EF9FE9A1E4A5
:1018D000B1E08093240190932501A0932601B09359
:1018E000270188EC90EEA1E4B1E0B7C08832910501
:1018F00049F540ED50EF6BE670E040932C015093BA
:101900002D0160932E0170932F014CE459E86BE692
:1019100070E0409328015093290160932A0170934D
:101920002B0140E750E06CE670E0409324015093B7
:101930002501609326017093270148E856E66BE67F
:1019400070E09FCF8E31910509F05CC040EC59EA00
:101950006AE970E040932C0150932D0160932E01B1
:1019600070932F0140E659EB6AE970E0409328013B
:101970005093290160932A0170932B0140E552E9AD
:101980006AE970E040932401509325016093260199
:10199000709327014CE454EB6AE970E04093200116
:1019A0005093210160932201709323010A9709F05B
:1019B0005CC080E190E6ACEAB1E080932C019093AA
:1019C0002D01A0932E01B0932F0180E29EEFADEA8E
:1019D000B1E08093280190932901A0932A01B0934C
:1019E0002B0180EB9FE6ACEAB1E080932401909359
:1019F0002501A0932601B093270188EB95E2ADEA7B
:101A0000B1E02BC08431910589F580E990ECA6ED19
:101A1000B0E080932C0190932D01A0932E01B09300
:101A20002F0180E098EDA6EDB0E08093280190931F
:101A30002901A0932A01B0932B0180E390EDA6ED3C
:101A4000B0E08093240190932501A0932601B093E8
:101A5000270180EF94E1A7EDB0E0809320019093FF
:101A60002101A0932201B0932301089581319105B2
:101A700009F00FCF80E29FE2A4E1B1E080932C0156
:101A800090932D01A0932E01B0932F0180EC9EE343
:101A9000A4E1B1E08093280190932901A0932A0149
:101AA000B0932B018093240190932501A0932601EC
:101AB000B093270188E191E4A4E1B1E0CECFCF93C8
:101AC000DF938AE090E00E947D1ECBE0D2E0888325
:101AD0008BE090E00E947D1E89838CE090E00E9464
:101AE0007D1E8A838DE090E00E947D1E8B83CE0157
:101AF000DF91CF9108950F931F93CF93DF938C01C4
:101B0000EB010E947D1E8883C80101960E947D1E04
:101B10008983CE01DF91CF911F910F91089561E9E3
:101B200071E088E290E00E947B0D8091910190919C
:101B30009201019701F58091200190912101A091DE
:101B40002201B09123018093870190938801A09393
:101B50008901B0938A0161E089E00E94380960E060
:101B60008AE00E94380960E08BE00E94380960E05A
:101B70008CE00E9438098091910190919201029726
:101B800001F58091240190912501A0912601B09149
:101B900027018093870190938801A0938901B093D6
:101BA0008A0160E089E00E94380961E08AE00E94D1
:101BB000380960E08BE00E94380960E08CE00E9408
:101BC00038098091910190919201039701F58091DC
:101BD000280190912901A0912A01B0912B018093B5
:101BE000870190938801A0938901B0938A0160E0F6
:101BF00089E00E94380960E08AE00E94380961E0CB
:101C00008BE00E94380960E08CE00E9438098091E6
:101C1000910190919201049701F580912C0190918E
:101C20002D01A0912E01B0912F01809387019093F7
:101C30008801A0938901B0938A0160E089E00E9445
:101C4000380960E08AE00E94380960E08BE00E9479
:101C5000380961E08CE00E943809809187019091F9
:101C60008801A0918901B0918A0180938B019093A2
:101C70008C01A0938D01B0938E01089560E089E0FE
:101C80000E94380960E08AE00E94380960E08BE039
:101C90000E94380960E08CE00E94380965E871E034
:101CA00082E390E00E947B0D8091850190918601F6
:101CB000019709F042C088E290E09093310180934F
:101CC000300161E089E00E9438096AEF70E080E04D
:101CD00090E00E94BC0960E089E00E9438096AEF48
:101CE00070E080E090E00E94BC0961E089E00E9421
:101CF00038096AEF70E080E090E00E94BC0960E083
:101D000089E00E9438096AEF70E080E090E00E946C
:101D1000BC0961E089E00E9438096AEF70E080E068
:101D200090E00E94BC0960E089E00E9438096AEFF7
:101D300070E080E090E00E94BC0980918501909164
:101D40008601029709F042C08EE190E09093310144
:101D50008093300161E08AE00E9438096AEF70E008
:101D600080E090E00E94BC0960E08AE00E943809AF
:101D70006AEF70E080E090E00E94BC0961E08AE0D8
:101D80000E9438096AEF70E080E090E00E94BC0990
:101D900060E08AE00E9438096AEF70E080E090E03D
:101DA0000E94BC0961E08AE00E9438096AEF70E095
:101DB00080E090E00E94BC0960E08AE00E9438095F
:101DC0006AEF70E080E090E00E94BC09809185019C
:101DD00090918601039709F042C084E190E09093CE
:101DE00031018093300161E08BE00E9438096AEF95
:101DF00070E080E090E00E94BC0960E08BE00E940F
:101E000038096AEF70E080E090E00E94BC0961E070
:101E10008BE00E9438096AEF70E080E090E00E9459
:101E2000BC0960E08BE00E9438096AEF70E080E056
:101E300090E00E94BC0961E08BE00E9438096AEFE3
:101E400070E080E090E00E94BC0960E08BE00E94BE
:101E500038096AEF70E080E090E00E94BC09809150
:101E6000850190918601049709F042C081E190E0DC
:101E7000909331018093300161E08CE00E94380939
:101E80006AEF70E080E090E00E94BC0960E08CE0C6
:101E90000E9438096AEF70E080E090E00E94BC097F
:101EA00061E08CE00E9438096AEF70E080E090E029
:101EB0000E94BC0960E08CE00E9438096AEF70E083
:101EC00080E090E00E94BC0961E08CE00E9438094B
:101ED0006AEF70E080E090E00E94BC0960E08CE076
:101EE0000E9438096AEF70E080E090E00E94BC092F
:101EF00068EE73E080E090E00E94BC090E94110C43
:101F00000C948F0DFF920F931F93CF93DF93EC01EF
:101F10008B01FB01F0800E947D1EF81621F06F2DD1
:101F2000CE010E94851EF801F1802196CE010E940B
:101F30007D1EF81621F06F2DCE010E94851EC8016E
:101F4000DF91CF911F910F91FF900895FF920F9312
:101F50001F93CF93DF930BE012E0CAE0D0E0F801CB
:101F6000F1908F01CE010E947D1EF81621F06F2D99
:101F7000CE010E94851E2196CE30D10581F78BE0DF
:101F800092E0DF91CF911F910F91FF900895CF9232
:101F9000DF92EF92FF920F931F93CF93909199024C
:101FA00021E02093E701909309021092E80110923A
:101FB0000A02682F8FE092E00E94950B81E00E9458
:101FC000550AC09199020E9497096B017C0180918A
:101FD000E101811165C081E08093E1011092E0018F
:101FE0009FEF9093DF011092DE011092DD0180934C
:101FF000BC018091BC01CC0FC82BC093BC01809167
:10200000BB01813009F080C01092BB010E9497098A
:102010006B017C018091BC018093BB008091E30146
:102020009091E401A091E501B091E601892B8A2B02
:102030008B2BA1F00E9497090091E3011091E4011C
:102040002091E5013091E6016C197D098E099F0907
:10205000061717072807390708F443C08091BC000A
:1020600083FDD8CF85EC8093BC000E9497096B015B
:102070007C018091E101813009F448C08091DE014A
:10208000C1E0811102C0C091DE01EDEBF1E0ABE9EE
:10209000B1E080E08C1751F191919D938F5FFACF61
:1020A0008091E3019091E401A091E501B091E601F6
:1020B000892B8A2B8B2B09F48ACF0E9497090091D8
:1020C000E3011091E4012091E5013091E6016C19E2
:1020D0007D098E099F09061717072807390708F099
:1020E00076CF8091E2010E94340AC0E010929A01FA
:1020F000C093990180E090919A01C91749F18FE04E
:1021000092E00E94550BF7CF85EEADCF8091E301B1
:102110009091E401A091E501B091E601892B8A2B11
:102120008B2B09F4A6CF0E9497090091E30110912F
:10213000E4012091E5013091E6016C197D098E09D9
:102140009F09061717072807390708F092CFC9CF4C
:10215000CF911F910F91FF90EF90DF90CF90089556
:10216000CF93DF93D82FC62F83E00E94C70F61E083
:1021700070E001C0660FDA95EAF7C13039F4609576
:10218000682383E0DF91CF910C94C40B682BF9CFC7
:102190001F93CF93DF93C62F142F8A5F9E4FFC01AE
:1021A000D0818D2F0E94C70F837811118C60F0E1D0
:1021B000CF9FB0011124682B8D2FDF91CF911F91FC
:1021C0000C94C40BCF93DF93D62FC0E1C80F8C2F94
:1021D0000E94C70F682FD13031F460648C2FDF91DB
:1021E000CF910C94C40B6F7BF9CFFF920F931F9389
:1021F000CF93DF93EC018B01F82E80E1F80E8F2D49
:102200000E94C70F682F0115110581F46F7D8F2D76
:102210000E94C40BCC0FDD1FC55EDD4F1A870987F6
:10222000DF91CF911F910F91FF9008956062EFCFE2
:102230002F923F924F925F926F927F928F929F92D6
:10224000AF92BF92CF92DF92EF92FF920F931F93C4
:10225000CF93DF93CDB7DEB72D970FB6F894DEBFDF
:102260000FBECDBF3C01C982DA82EB82FC820D83B6
:102270001E832F83388749875A876B877C87BAA04C
:102280003C2C2D2C5E2C0D87412E922EC984DA8495
:10229000EB84FC8484E190E00E94A5208C01FC0189
:1022A000D082C182862D880F880F880F845D0E949E
:1022B000C70FF52DF3705F2E8C7F582AF8015282DC
:1022C000238234828CE0F694E794D794C7948A955D
:1022D000D1F7FC2DF07FCF2E892D8F70C82AF80101
:1022E000C58246828D85878393E06916710409F45F
:1022F0006CC0A8F5F1E06F16710409F448C082E0E3
:102300006816710409F452C0A80168E08AE20E94CC
:10231000DF0B6A2D90E080E00E94E2104B2D682DCB
:1023200090E080E00E94C810C8012D960FB6F89486
:10233000DEBF0FBECDBFDF91CF911F910F91FF90F8
:10234000EF90DF90CF90BF90AF909F908F907F9055
:102350006F905F904F903F902F900C94412194E0AC
:102360006916710409F440C0E5E06E16710461F667
:10237000A80168E082E50E94DF0B6A2D85E090E00D
:102380000E94E2104B2D682D85E090E0CBCFA80194
:1023900068E082E30E94DF0B6A2D81E090E00E94FA
:1023A000E2104B2D682D81E090E0BCCFA80168E0E1
:1023B0008AE30E94DF0B6A2D82E090E00E94E21027
:1023C0004B2D682D82E090E0ADCFA80168E082E45B
:1023D0000E94DF0B6A2D83E090E00E94E2104B2DFB
:1023E000682D83E090E09ECFA80168E08AE40E9417
:1023F000DF0B6A2D84E090E00E94E2104B2D682DE7
:1024000084E090E08FCF2F923F924F925F926F9235
:102410007F928F929F92AF92BF92CF92DF92EF9274
:10242000FF920F931F93CF93DF93CDB7DEB72E9715
:102430000FB6F894DEBF0FBECDBF19013A014B01B4
:102440008D879E872801012B09F073C0E0918402DB
:10245000F0918502EE0FFF1FEE0FFF1FE057FD4FBB
:10246000A080B180C280D380CE0101967C01890119
:102470009301AB016D857E8590E080E00E94930022
:1024800084E190E00E94A5208C0189859A85AB8526
:10249000BC85F8019083818339814A812B81237027
:1024A0002283438334832CE0B695A795979587952F
:1024B0002A95D1F7807F2D813E819F819F70892B46
:1024C0008583368327834114510409F04BC0A8014A
:1024D00068E08AE10E94DF0B20927402309275025C
:1024E00060927602709277028092780290927902DE
:1024F000FD85F0937A028E8580937B02C8012E962B
:102500000FB6F894DEBF0FBECDBFDF91CF911F9104
:102510000F91FF90EF90DF90CF90BF90AF909F9082
:102520008F907F906F905F904F903F902F900C9482
:102530004121E0918602F0918702EE0FFF1FEE0F1E
:10254000FF1FE057FD4FA080B180C280D380FE0105
:1025500031967F0181019A01AB016D857E8581E015
:1025600090E08CCF4A94452849F6A80168E082E2C1
:102570000E94DF0B20927C0230927D0260927E02EC
:1025800070927F028092800290928102ED85E093AA
:102590008202FE85F0938302B1CF2F923F924F9239
:1025A0005F926F927F928F929F92AF92BF92CF92E3
:1025B000DF92EF92FF920F931F93CF93DF93CDB7EC
:1025C000DEB7E5970FB6F894DEBF0FBECDBFE22EA3
:1025D00029A3F32E3AA34BA35CA36DA37EA38FA3E1
:1025E00098A7702E612E9701AFEF0E9478202E37AA
:1025F0003A4146405105610571058105910509F093
:1026000058F480E889A38AE18AA386E08BA31CA200
:102610001DA21EA21FA218A629A13AA14BA15CA12E
:102620006DA17EA18FA198A52115314C4A415D4332
:10263000654071058105910569F060F019A281EC92
:102640008AA38AE18BA38DE38CA385E08DA31EA2D0
:102650001FA218A6D9A04AA05BA0ACA0EDA0FEA026
:102660000FA118A5272C362C2D2D342D452D5A2D94
:10267000B701C8012115344E4B40544562407105E5
:102680008105910509F008F425C1A4E34A2EA2E0D2
:102690005A2E2BE132E03AA729A78901F201D12C69
:1026A000C101880F991FDC01AC5DBD4F7D01208108
:1026B0003181428153816481758186819781389609
:1026C0002115344E4B4054456240710581059105FA
:1026D00071F068F0D71459F0D80119962D913C91FA
:1026E000D7018D919C912817390709F46AC1D394B9
:1026F0000E5F1F4FB6E0DB12DACF810106561D4F89
:10270000F8018081811108C061E0872D962D0E941B
:10271000B01081E0D8018C9329A13AA14BA15CA112
:102720006DA17EA18FA198A5D101E3E0AA0FBB1FE7
:10273000EA95E1F7A55EBD4FFD01799659962C9378
:102740003183428353836483758386839783FE0139
:102750003D964F01A12CB12CC12CD12CE12CF12C98
:1027600000E010E00E948E052BA73CA74DA75EA7B6
:102770006FA778AB89AB9AABC101880F991F9C01F9
:10278000255E3D4F7901D90119960D911C912BA51C
:102790003CA589A99AA90E940312712C612CF7010A
:1027A0003996FDABECABD201AC901196EC90119741
:1027B0001296FC90129713960C91139714961C91F5
:1027C00014971596BC91F201D680C780F8E04F0EA1
:1027D000511C2A2D3E2D4F2D502F612F7B2F8D2DDB
:1027E0009C2DA0E00E94842009F455C0E9A5FAA51B
:1027F00021853285ECA9FDA98081918128173907AF
:1028000009F049C0A98EEA8EFB8E0C8F1D8FBE8FFA
:10281000DF8EC8A2CE0149960E94A4078BAB298DFA
:102820003A8D4B8D5C8D6D8D7E8DCE0101964C0168
:10283000ABA4BCA4CDA4DEA4EFA4F8A809A91AA94E
:102840008F8D98A10E948E05AA24A394298D3A8D7C
:102850004B8D5C8D6D8D7E8D8F8D98A12F3F354D6D
:1028600041415E47634071058105910509F008F417
:10287000A12CAF928BA8C980DA80EB80FC800D81FF
:102880001E812F81388549855A856B857C85C301DA
:102890000E9418110F90BFEF6B1A7B0AE9A5FAA5E9
:1028A0003296FAA7E9A7F6E06F16710409F07BCF1C
:1028B000F101EE0FFF1FE55EFD4F8185928560E21D
:1028C000009719F0019721F460E881EB0E94C40B96
:1028D00080E078C0D10193E0AA0FBB1F9A95E1F781
:1028E000A55EBD4FFD0179965996DC9241825282D8
:1028F000A382E482F58206831783810106561D4F69
:10290000D8018C91811108C061E0872D962D0E941D
:10291000B01081E0F8018083CE0181960E94A40767
:10292000582EF101EE0FFF1FE55EFD4F0184F28589
:10293000E02D29A13AA14BA15CA16DA17EA18FA19F
:1029400098A5EF2B51F5A0907402B0907502C0903D
:102950007602D0907702E0907802F09079020091B0
:102960007A0210917B02DE011D964D010E948E05B8
:102970001F92852CA12CCD84DE84EF84F8880989F0
:102980001A892B893C894D895E896F89788D872DBD
:10299000962D0E9418110F909BCFA0907C02B090B2
:1029A0007D02C0907E02D0907F02E0908002F09085
:1029B00081020091820210918302FE013D964F0137
:1029C000D5CF81E0E5960FB6F894DEBF0FBECDBF40
:1029D000DF91CF911F910F91FF90EF90DF90CF90FB
:1029E000BF90AF909F908F907F906F905F904F902F
:1029F0003F902F9008950F931F93609390027093D0
:102A000091028093920290939302E4E7F2E0208196
:102A10003181428153816481758110E000E08681BB
:102A200097810E940312ECE7F2E02081318142811C
:102A300053816481758101E010E0868197810E9455
:102A400003121F910F91089585ED8093BC00809132
:102A5000E3019091E401A091E501B091E6010796B0
:102A6000A11DB11D23E0B695A795979587952A9549
:102A7000D1F72091BC0024FD03C01092E10108951C
:102A80004091E3015091E4016091E5017091E6010C
:102A9000452B462B472B69F30097A105B10541F063
:102AA00025E32A95F1F700000197A109B109E1CFCB
:102AB0008091E2010C94340A1F920F920FB60F928C
:102AC00011242F933F938F939F93AF93BF93809144
:102AD000770190917801A0917901B0917A013091BC
:102AE000760123E0230F2D3758F50196A11DB11D66
:102AF000209376018093770190937801A0937901D8
:102B0000B0937A0180917B0190917C01A0917D012D
:102B1000B0917E010196A11DB11D80937B01909320
:102B20007C01A0937D01B0937E01BF91AF919F91F5
:102B30008F913F912F910F900FBE0F901F9018957E
:102B400026E8230F0296A11DB11DD2CF1F920F922E
:102B50000FB60F9211242F933F934F935F936F9370
:102B60007F938F939F93AF93BF93EF93FF93809146
:102B7000B900887F803609F44AC0F0F5883209F43C
:102B8000A7C018F5803109F49BC0B8F4882309F474
:102B9000F9C0883009F494C0FF91EF91BF91AF91D3
:102BA0009F918F917F916F915F914F913F912F9165
:102BB0000F900FBE0F901F901895883109F488C0B0
:102BC000803251F78093DF0114C0803409F49DC036
:102BD00040F48033B9F38833F9F68093DF0185EC54
:102BE000B0C0803509F485C0883509F496C08834B2
:102BF00099F60E942415D0CF883909F48CC038F595
:102C0000883729F050F4883611F0803729F683E0B0
:102C10008093E1011092750157C0883809F47BC098
:102C2000803919F0803809F0B7CF80917501803272
:102C300008F071C0E091750181E08E0F80937501FD
:102C40008091BB00F0E0EB5AFE4F80833DC0803B9B
:102C500039F0E0F4803A09F479C0883A09F09CCF61
:102C600084E08093E1011092540110925301E091AD
:102C70008301F091840109958091530181110FC066
:102C800081E0809353011092330109C0803C09F424
:102C9000A6CF883C09F4A3CF883B09F07DCFE09113
:102CA000540181E08E0F80935401F0E0ED5CFE4F03
:102CB00080818093BB00909154018091530129C081
:102CC0008091BC018093BB0085EC8093BC0064CFF5
:102CD0009091DE018091DD01981758F5E091DE01B9
:102CE00081E08E0F8093DE01F0E0E354FE4F80819F
:102CF000E9CFE091DE0181E08E0F8093DE018091CB
:102D0000BB00F0E0E354FE4F80839091DE018091A0
:102D1000DD019817C8F285E8D8CFE091DE0181E0A7
:102D20008E0F8093DE018091BB00F0E0E354FE4FF4
:102D300080838091E00181115CCF81E08093BB01B1
:102D400084EA8093BC001092E10126CF85EC809349
:102D5000BC001092E10180917501803230F4E09165
:102D60007501F0E0EB5AFE4F10826091750170E042
:102D7000E0918101F091820185E591E00995109241
:102D800075010ACF1092DF0134CFEFE0F2E0138239
:102D9000128288EE93E0A0E0B0E084839583A6835E
:102DA000B78382E191E091838083EBE1F2E085E0FB
:102DB000DF011D928A95E9F7158216821782108627
:102DC00080E68093990280E498E7ADE7B1E08093D4
:102DD000880290938902A0938A02B0938B0210928A
:102DE000850210928402109287021092860210923D
:102DF00098020895789484B5826084BD84B581601A
:102E000084BD85B5826085BD85B5816085BD8091B5
:102E10006E00816080936E0010928100809181002D
:102E20008260809381008091810081608093810025
:102E3000809180008160809380008091B1008460E7
:102E40008093B1008091B00081608093B000809148
:102E50007A00846080937A0080917A008260809307
:102E60007A0080917A00816080937A0080917A0064
:102E7000806880937A001092C10060E082E00E9436
:102E8000660960E083E00E94660960E084E00E94D9
:102E9000660961E08DE00E94660961E089E00E94B8
:102EA000660961E08AE00E94660961E08BE00E94A9
:102EB000660961E08CE00E94660961E088E00E949A
:102EC000660960E087E00E9466096FE771E08EE1C5
:102ED00090E00E947B0D80917F019091800184366B
:102EE000910509F4FBC280EA96E8A1E0B0E0809386
:102EF0000B0290930C02A0930D02B0930E020E945D
:102F0000A60F84E090E09093800180937F016FE7AB
:102F100071E088E290E00E94820F84E690E0909356
:102F2000800180937F016FE771E08EE190E00E9465
:102F3000820F81E090E09093800180937F016FE7A2
:102F400071E082E390E00E94820F0E943E0E0E9498
:102F5000110C0E948F0D82E10E94C70F682F6068DC
:102F600082E10E94C40B10929A0110929901109272
:102F7000E80110920A020E94160A84EE98E09093EB
:102F800084018093830185EE98E090938201809381
:102F900081018091990291E09093E7018093090269
:102FA00081E00E94550A8111FAC080E00E94C70F9B
:102FB00090E0880F892F881F990B0197B1F362E980
:102FC00087EB0E94C40B80E498E7ADE7B1E0809303
:102FD000880290938902A0938A02B0938B0260E0EA
:102FE00070E0CB010E94FB1460E880E10E94C40BFA
:102FF00060E881E10E94C40B60E882E10E94C40B9A
:1030000060E883E10E94C40B60E884E10E94C40B85
:1030100060E885E10E94C40B60E886E10E94C40B71
:1030200060E887E10E94C40B6CE080E10E94C40B61
:103030006CE081E10E94C40B6CE082E10E94C40B51
:103040006CE083E10E94C40B6CE084E10E94C40B3D
:103050006CE085E10E94C40B6CE086E10E94C40B29
:103060006CE087E10E94C40B10E000E020E030E259
:103070004FE550EA62E170E080E090E00E940312C8
:1030800001E010E020E030E24FE550EA62E170E05C
:1030900080E090E00E940312109225021092240218
:1030A00010922702109226021092290210922802F2
:1030B00010922B0210922A0210922D0210922C02D2
:1030C00010922F0210922E0281E090E09093310234
:1030D00080933002909333028093320270E060E07C
:1030E00090E080E00E94F51070E060E081E090E008
:1030F0000E94F51070E060E082E090E00E94F51020
:1031000070E060E083E090E00E94F51070E060E025
:1031100084E090E00E94F51070E060E085E090E0CF
:103120000E94F51061E070E086E090E00E94F510EA
:1031300061E070E087E090E00E94F51060E082EAD4
:103140000E94C40B60E083EA0E94C40B60E084EA42
:103150000E94C40B60E281EB0E94C40B60E881EB2B
:103160000E94C40BC4E3D2E03AE9E32E32E0F32E2E
:1031700010E000E0188219821A821B821C821D82D4
:103180001E821F82289660E0C8010E94B010F701DD
:1031900011927F010F5F1F4F0830110559F76091A1
:1031A0000B0270910C0280910D0290910E020E9410
:1031B000FB1410E000E020E030E24FE550EA62E16D
:1031C00070E080E090E00E94031280E10E94C70F4F
:1031D000682F636080E10E94C40B81E10E94C70FE9
:1031E000682F6C7F81E10E94C40B83E00E940F096D
:1031F000892B09F088C160E08CE00E94380960E00A
:103200008BE00E94380960E08AE00E94380960E0A3
:1032100089E00E94380961E089E00E94380961E094
:103220008CE00E94380964E670E080E090E00E9443
:10323000BC0960E089E00E94380960E08CE00E94EF
:10324000380964E670E080E090E00E94BC0961E02B
:1032500089E00E94380961E08CE00E94380964E648
:1032600070E080E090E00E94BC0960E089E00E948C
:10327000380960E08CE00E94380964E670E080E084
:1032800090E00E94BC0961E089E00E94380961E099
:103290008CE00E94380964E670E080E090E00E94D3
:1032A000BC0960E089E00E94380960E08CE00E947F
:1032B000380964E670E080E090E00E94BC0961E0BB
:1032C00089E00E94380961E08CE00E94380964E6D8
:1032D00070E080E090E00E94BC0960E089E00E941C
:1032E000380960E08CE00E94380964E670E080E014
:1032F00090E00E94BC0961E089E00E94380961E029
:103300008CE00E9438090E945F0D82E00E940F0944
:103310009093980180939701892B09F041C062E353
:1033200070E080E090E00E94BC0982E00E940F09FA
:103330009093980180939701892B91F560910B02EE
:1033400070910C0280910D0290910E0264567109E9
:103350008109910960930B0270930C0280930D0216
:1033600090930E020E94FB1402E010E020E031EE88
:1033700045EF55E060E070E080E090E00E94CD1203
:1033800082E10E94C70F682F6C7F82E10E94C40B0C
:1033900082E10E94C70F682F6F7782E10E94C40B01
:1033A00083E00E940F099093960180939501892BE9
:1033B00009F041C062E370E080E090E00E94BC0947
:1033C00083E00E940F099093960180939501892BC9
:1033D00091F560910B0270910C0280910D02909119
:1033E0000E026C597F4F8F4F9F4F60930B0270936B
:1033F0000C0280930D0290930E020E94FB1402E0D7
:1034000010E020E031EE45EF55E060E070E080E054
:1034100090E00E94CD1282E10E94C70F682F6C7F5E
:1034200082E10E94C40B82E10E94C70F682F6F7770
:1034300082E10E94C40B84E00E940F0990939001E6
:1034400080938F01892B09F060CF62E370E080E008
:1034500090E00E94BC0984E00E940F0990939001C3
:1034600080938F01892B09F050CF0E94A60F61E055
:103470008DE00E9438096AEF70E080E090E00E94E1
:10348000BC0960E08DE00E9438096AEF70E080E0DE
:1034900090E00E94BC0961E08DE00E9438096AEF6B
:1034A00070E080E090E00E94BC0960E08DE00E9446
:1034B00038096AEF70E080E090E00E94BC0961E0AA
:1034C0008DE00E9438096AEF70E080E090E00E9491
:1034D000BC0960E08DE00E94380917CF6FE771E00A
:1034E0008EE190E00E947B0D0E945F0D61E971E02A
:1034F00088E290E00E947B0D65E871E082E390E055
:103500000E947B0D22CD1092800081E0809381008B
:1035100081E88093810080B7846080BF60E087E0AD
:103520000E94660960E088E00E9438090E948F0DC1
:10353000412C90E1592E9EE5692E9FE5792E20E0E1
:10354000222E20E0322E82E00E940F09EC0190939F
:1035500098018093970183E00E940F099093960150
:1035600080939501CD2B09F05DC2892B09F025C20E
:103570008091930190919401892B09F01EC264E619
:1035800070E080E090E00E94BC0982E00E940F0998
:10359000EC01909398018093970183E00E940F09BA
:1035A0009093960180939501CD2B09F03BC2892B16
:1035B00009F003C261E08DE00E94380965E871E01E
:1035C00082E390E00E947B0D60E089E00E94380970
:1035D00060E08AE00E94380960E08BE00E943809D0
:1035E00060E08CE00E94380980918501909186010D
:1035F0000197E1F561E089E00E9438096AEF70E027
:1036000080E090E00E94BC0960E089E00E943809F7
:103610006AEF70E080E090E00E94BC0961E089E020
:103620000E9438096AEF70E080E090E00E94BC09D7
:1036300060E089E00E9438096AEF70E080E090E085
:103640000E94BC0961E089E00E9438096AEF70E0DD
:1036500080E090E00E94BC0960E089E00E943809A7
:103660006AEF70E080E090E00E94BC0980918501E3
:10367000909186010297E1F561E08AE00E943809A5
:103680006AEF70E080E090E00E94BC0960E08AE0B0
:103690000E9438096AEF70E080E090E00E94BC0967
:1036A00061E08AE00E9438096AEF70E080E090E013
:1036B0000E94BC0960E08AE00E9438096AEF70E06D
:1036C00080E090E00E94BC0961E08AE00E94380935
:1036D0006AEF70E080E090E00E94BC0960E08AE060
:1036E0000E9438096AEF70E080E090E00E94BC0917
:1036F00080918501909186010397E1F561E08BE06F
:103700000E9438096AEF70E080E090E00E94BC09F6
:1037100060E08BE00E9438096AEF70E080E090E0A2
:103720000E94BC0961E08BE00E9438096AEF70E0FA
:1037300080E090E00E94BC0960E08BE00E943809C4
:103740006AEF70E080E090E00E94BC0961E08BE0ED
:103750000E9438096AEF70E080E090E00E94BC09A6
:1037600060E08BE00E9438096AEF70E080E090E052
:103770000E94BC0980918501909186010497E1F532
:1037800061E08CE00E9438096AEF70E080E090E030
:103790000E94BC0960E08CE00E9438096AEF70E08A
:1037A00080E090E00E94BC0961E08CE00E94380952
:1037B0006AEF70E080E090E00E94BC0960E08CE07D
:1037C0000E9438096AEF70E080E090E00E94BC0936
:1037D00061E08CE00E9438096AEF70E080E090E0E0
:1037E0000E94BC0960E08CE00E9438096AEF70E03A
:1037F00080E090E00E94BC09809185019091860153
:10380000019781F461E089E00E94380960E08AE074
:103810000E94380960E08BE00E94380960E08CE08B
:103820000E9438098091850190918601029781F468
:1038300061E08AE00E94380960E089E00E9438096E
:1038400060E08BE00E94380960E08CE00E9438095B
:103850008091850190918601039781F461E08BE06E
:103860000E94380960E089E00E94380960E08AE03F
:103870000E94380960E08CE00E943809809185013F
:1038800090918601049781F460E08AE00E943809F3
:1038900060E089E00E94380960E08BE00E9438090E
:1038A00061E08CE00E94380982E00E940F098C01DF
:1038B000909398018093970183E00E940F09EC0197
:1038C0009093960180939501012B21F5019709F0C2
:1038D00048C064E670E080E090E00E94BC0982E0AD
:1038E0000E940F099093980180939701892B91F47E
:1038F0008091850190918601019790938601809334
:103900008501181619066CF184E090E09093860109
:103910008093850100919701109198010130110564
:1039200001F5CD2BF1F464E670E080E090E00E94B8
:10393000BC0983E00E940F09909396018093950142
:10394000892B79F48091850190918601019690935D
:10395000860180938501059724F0109386010093DA
:10396000850184E00E940F09909394018093930154
:10397000892B09F041CF64E670E080E090E00E947E
:10398000BC0984E00E940F099093940180939301F5
:10399000892B09F031CF60E08DE00E94380965E89D
:1039A00071E082E390E00E94820F0E943E0E8091BF
:1039B000970190919801892BA9F58091950190919B
:1039C0009601019779F58091930190919401892B4B
:1039D00049F562E370E080E090E00E94BC0982E07B
:1039E0000E940F099093980180939701892BD1F43D
:1039F000809191019091920101979093920180930F
:103A000091011816190634F0E4E0F0E0F093920109
:103A1000E093910161E971E088E290E00E94820FF9
:103A20000E948F0D83E00E940F099093960180936E
:103A30009501C0919701D0919801C130D10571F5E0
:103A4000892B61F58091930190919401892B31F537
:103A500062E370E080E090E00E94BC0983E00E9495
:103A60000F099093960180939501892BB9F4809169
:103A7000910190919201019690939201809391010E
:103A8000059724F0D0939201C093910161E971E010
:103A900088E290E00E94820F0E948F0D84E00E94D5
:103AA0000F099093900180938F01892B09F05BC0DF
:103AB0008091930190919401892B09F054C062E3A5
:103AC00070E080E090E00E94BC0984E00E940F0951
:103AD0009093900180938F01892B09F044C00E943C
:103AE0008F0D60E088E00E94380960E081E090E09E
:103AF0000E94B010EE24E394F12C84E00E940F09A0
:103B0000EC019093900180938F0161E08DE00E9421
:103B100038096091870170918801809189019091A5
:103B20008A0124E630E040E050E00E94371F10E0B8
:103B300000E00E94CD1261E090E080E00E94B010B1
:103B4000F0929401E09293012197B9F660E08DE044
:103B50000E94380960E090E080E00E94B01010926E
:103B600094011092930110E000E0CAE0D0E01092BE
:103B700085001092840000B605FE07C08091840085
:103B800090918500893E9D4FB0F300B605FC07C0BB
:103B90008091840090918500893E9D4FB0F31092F2
:103BA00085001092840000B605FE07C08091840055
:103BB00090918500893E9D4FB0F380918600909151
:103BC000870000B605FC07C0209184003091850075
:103BD000293E3D4FB0F300B605FE07C0209184009A
:103BE00030918500293E3D4FB0F320918600309101
:103BF00087004091840050918500483E5D4F08F059
:103C00007AC0281B390B50E040E0C301B2010E948A
:103C1000B51E69017A0120E3C21627E5D20625E028
:103C2000E206F104B4F5012BC1F481E090E0909339
:103C300094018093930161E08DE00E94380960E077
:103C400088E00E94380960E081E090E00E94B010B6
:103C500061E090E080E00E94B01020918B013091F3
:103C60008C0140918D0150918E01A4E6B0E00E943C
:103C7000D41EC60ED71EE81EF91E10E000E0960105
:103C8000A70160E070E080E090E00E94CD1201E0CA
:103C900010E0209709F06BCF60E08DE00E943809BA
:103CA00060E090E080E00E94B01060918B01709124
:103CB0008C0180918D0190918E0124E630E040E0EE
:103CC00050E00E94371F01E010E00E94CD1261E039
:103CD00081E090E00E94B010109294011092930144
:103CE00061E088E00E9438092114310409F42BCCEA
:103CF0000E94000028CC2197CCCFF999FECF92BD2D
:103D000081BDF89A992780B50895262FF999FECF9D
:103D10001FBA92BD81BD20BD0FB6F894FA9AF99AE8
:103D20000FBE01960895A1E21A2EAA1BBB1BFD012E
:103D30000DC0AA1FBB1FEE1FFF1FA217B307E4078A
:103D4000F50720F0A21BB30BE40BF50B661F771FE2
:103D5000881F991F1A9469F76095709580959095C2
:103D60009B01AC01BD01CF010895052E97FB1EF408
:103D700000940E94CC1E57FD07D00E94931E07FCA2
:103D800003D04EF40C94CC1E50954095309521955F
:103D90003F4F4F4F5F4F0895909580957095619577
:103DA0007F4F8F4F9F4F08950E949620A59F900DA3
:103DB000B49F900DA49F800D911D11240895DF9351
:103DC000CF931F930F939A9DF02D219FF00D8B9D04
:103DD000F00D8A9DE02DF10D039FF00D029FE00D87
:103DE000F11D4E9DE00DF11D5E9DF00D4F9DF00DFE
:103DF0007F936F93BF92AF925F934F93D5010E94D1
:103E000096208B01AC01D7010E949620EB01E80FB0
:103E1000F91FD6010E942E1F2F913F91D6010E94BB
:103E20009620C60FD71FE81FF91FAF91BF910E94C0
:103E30002E1F2F913F910E949620C60FD71FE81F7B
:103E4000F91FD6010E949620E60FF71F9801BE01C8
:103E5000CF010F911F91CF91DF9108950E9496207D
:103E6000460F571FC81FD91F08F431960895E894CC
:103E7000DF93CF93FC01DB010E9496207F936F9329
:103E8000E9019A01AC01BF93AF933F932F93DF01F8
:103E90000E94962026F46C1B7D0B820B930B9E01D7
:103EA000EB01FC010E942E1FAF91BF912F913F911A
:103EB0000E942E1FBE01CF01F9012F913F91CF919A
:103EC000DF910895689401C0E894F92FF12B12F066
:103ED0000C94961FA0E0B0E0E0E7FFE10C9408200E
:103EE000092E059422F40E94F21F112392F4F0E8A7
:103EF0000F26FFEFE094F09400951095B094C094D5
:103F0000D094A194BF0ACF0ADF0AEF0AFF0A0F0B71
:103F10001F0B0E94A11F07FC0E94F21FCDB7DEB746
:103F2000ECE00C942420689401C0E8948F929F9256
:103F3000CF93DF930E94A11FDF91CF919F908F902D
:103F4000089588249924F401E401B0E49F93AA27FA
:103F50009A158B049C04ED05FE05CF05D007A1073B
:103F600098F4AD2FDC2FCF2FFE2FE92D982C892E22
:103F7000982F872F762F652F542F432F322F2227EC
:103F8000B85031F7BF9127C01B2EBF91BB27220F1E
:103F9000331F441F551F661F771F881F991F881CDA
:103FA000991CEE1FFF1FCC1FDD1FAA1FBB1F8A1409
:103FB0009B04EC05FD05CE05DF05A007B10748F021
:103FC0008A189B08EC09FD09CE09DF09A00BB10B8B
:103FD00021601A94E1F62EF49401AF01BE01CD01E7
:103FE000000C08956095709580959095309540955A
:103FF000509521953F4F4F4F5F4F6F4F7F4F8F4FE2
:104000009F4F08952F923F924F925F926F927F92AF
:104010008F929F92AF92BF92CF92DF92EF92FF92D8
:104020000F931F93CF93DF93CDB7DEB7CA1BDB0B84
:104030000FB6F894DEBF0FBECDBF09942A88398829
:1040400048885F846E847D848C849B84AA84B98430
:10405000C884DF80EE80FD800C811B81AA81B9813C
:10406000CE0FD11D0FB6F894DEBF0FBECDBFED0150
:104070000895002E083090F0982F872F762F652F07
:10408000542F432F322F22270850F4CF220F331FF3
:10409000441F551F661F771F881F991F0A95B2F787
:1040A000002D089597FD1094002E083098F00850C8
:1040B000232F342F452F562F672F782F892F912D9F
:1040C000F4CF15949795879577956795579547956C
:1040D000379527950A95AAF71124002D08952A0DE2
:1040E0003B1D4C1D5D1D6E1D7F1D801F911F089582
:1040F0000024A7FD00942A0F301D401D501D601D97
:10410000701D801D901D08950024A7FD00942A179E
:10411000300540055005600570058005900508953F
:10412000EE0FFF1F0590F491E02D0994A29FB001BE
:10413000B39FC001A39F700D811D1124911DB29FDB
:10414000700D811D1124911D08950F931F93CF931E
:10415000DF938230910510F482E090E0E091A402B8
:10416000F091A50230E020E0B0E0A0E0309799F4B3
:104170002115310509F44AC0281B390B24303105BB
:10418000D8F58A819B816115710589F1FB019383C3
:104190008283FE0111C04081518102811381481741
:1041A0005907E0F04817590799F4109761F01296F3
:1041B0000C93129713961C933296CF01DF91CF91F7
:1041C0001F910F9108950093A4021093A502F4CFBC
:1041D0002115310551F04217530738F0A901DB01D1
:1041E0009A01BD01DF01F801C1CFEF01F9CF909332
:1041F000A5028093A402CDCFFE01E20FF31F8193AD
:1042000091932250310939832883D7CF2091A2027C
:104210003091A302232B41F420910201309103013C
:104220003093A3022093A20220910001309101015A
:104230002115310541F42DB73EB74091040150914D
:104240000501241B350BE091A202F091A302E217B5
:10425000F307A0F42E1B3F0B2817390778F0AC01A9
:104260004E5F5F4F2417350748F04E0F5F1F509386
:10427000A3024093A202819391939FCFF0E0E0E0EC
:104280009CCFCF93DF930097E9F0FC013297138224
:104290001282A091A402B091A502ED0130E020E0CD
:1042A0001097A1F420813181820F931F2091A202E7
:1042B0003091A3022817390709F061C0F093A302D7
:1042C000E093A202DF91CF910895EA01CE17DF07B4
:1042D000E8F54A815B819E0141155105B1F7E9017D
:1042E000FB83EA8349915991C40FD51FEC17FD0751
:1042F00061F4808191810296840F951FE901998371
:104300008883828193819B838A83F0E0E0E0129628
:104310008D919C9113970097B9F52D913C91119730
:10432000CD010296820F931F2091A2023091A30229
:104330002817390739F6309751F51092A5021092D7
:10434000A402B093A302A093A202BCCFD383C283E2
:1043500040815181840F951FC817D90761F44E5FC2
:104360005F4F88819981480F591F518340838A810B
:104370009B81938382832115310509F0B0CFF0939F
:10438000A502E093A4029ECFFD01DC01C0CF138201
:084390001282D7CFF894FFCF91
:104398000000A60280002C343C444C545C5C0000B5
:1043A8000000950B680B0E0C450B8C00550B460B4B
:00000001FF
